{
  "_format": "hh-sol-artifact-1",
  "contractName": "DFS",
  "sourceName": "contracts/DFS.sol",
  "abi": [
    {
      "anonymous": false,
      "inputs": [
        {
          "indexed": true,
          "internalType": "uint256",
          "name": "fileId",
          "type": "uint256"
        },
        {
          "indexed": false,
          "internalType": "string",
          "name": "ipfsHash",
          "type": "string"
        },
        {
          "indexed": true,
          "internalType": "address",
          "name": "owner",
          "type": "address"
        }
      ],
      "name": "FileUploaded",
      "type": "event"
    },
    {
      "inputs": [
        {
          "internalType": "uint256",
          "name": "",
          "type": "uint256"
        },
        {
          "internalType": "address",
          "name": "",
          "type": "address"
        }
      ],
      "name": "fileAccess",
      "outputs": [
        {
          "internalType": "bool",
          "name": "",
          "type": "bool"
        }
      ],
      "stateMutability": "view",
      "type": "function"
    },
    {
      "inputs": [],
      "name": "fileCount",
      "outputs": [
        {
          "internalType": "uint256",
          "name": "",
          "type": "uint256"
        }
      ],
      "stateMutability": "view",
      "type": "function"
    },
    {
      "inputs": [
        {
          "internalType": "uint256",
          "name": "",
          "type": "uint256"
        }
      ],
      "name": "files",
      "outputs": [
        {
          "internalType": "string",
          "name": "ipfsHash",
          "type": "string"
        },
        {
          "internalType": "address",
          "name": "owner",
          "type": "address"
        },
        {
          "internalType": "bool",
          "name": "isShared",
          "type": "bool"
        }
      ],
      "stateMutability": "view",
      "type": "function"
    },
    {
      "inputs": [
        {
          "internalType": "uint256",
          "name": "_fileId",
          "type": "uint256"
        },
        {
          "internalType": "address",
          "name": "_user",
          "type": "address"
        }
      ],
      "name": "grantAccess",
      "outputs": [],
      "stateMutability": "nonpayable",
      "type": "function"
    },
    {
      "inputs": [
        {
          "internalType": "uint256",
          "name": "_fileId",
          "type": "uint256"
        },
        {
          "internalType": "address",
          "name": "_user",
          "type": "address"
        }
      ],
      "name": "hasAccess",
      "outputs": [
        {
          "internalType": "bool",
          "name": "",
          "type": "bool"
        }
      ],
      "stateMutability": "view",
      "type": "function"
    },
    {
      "inputs": [
        {
          "internalType": "uint256",
          "name": "_fileId",
          "type": "uint256"
        },
        {
          "internalType": "address",
          "name": "_user",
          "type": "address"
        }
      ],
      "name": "revokeAccess",
      "outputs": [],
      "stateMutability": "nonpayable",
      "type": "function"
    },
    {
      "inputs": [
        {
          "internalType": "string",
          "name": "_ipfsHash",
          "type": "string"
        }
      ],
      "name": "uploadFile",
      "outputs": [],
      "stateMutability": "nonpayable",
      "type": "function"
    }
  ],
  "bytecode": "0x608060405234801561001057600080fd5b50610ce5806100206000396000f3fe608060405234801561001057600080fd5b506004361061007d5760003560e01c8063ced141981161005b578063ced14198146100ec578063d9a5ec1b1461011c578063e37ffc3014610138578063f4c714b4146101545761007d565b806343953519146100825780634b974007146100a057806365dd152c146100d0575b600080fd5b61008a610186565b6040516100979190610a46565b60405180910390f35b6100ba60048036038101906100b59190610869565b61018c565b6040516100c7919061098b565b60405180910390f35b6100ea60048036038101906100e59190610869565b6101bb565b005b61010660048036038101906101019190610869565b6102cc565b604051610113919061098b565b60405180910390f35b61013660048036038101906101319190610869565b6103a0565b005b610152600480360381019061014d91906107ff565b6104b1565b005b61016e60048036038101906101699190610840565b6105eb565b60405161017d939291906109c8565b60405180910390f35b60005481565b60026020528160005260406000206020528060005260406000206000915091509054906101000a900460ff1681565b3373ffffffffffffffffffffffffffffffffffffffff166001600084815260200190815260200160002060010160009054906101000a900473ffffffffffffffffffffffffffffffffffffffff1673ffffffffffffffffffffffffffffffffffffffff161461025f576040517f08c379a000000000000000000000000000000000000000000000000000000000815260040161025690610a06565b60405180910390fd5b60016002600084815260200190815260200160002060008373ffffffffffffffffffffffffffffffffffffffff1673ffffffffffffffffffffffffffffffffffffffff16815260200190815260200160002060006101000a81548160ff0219169083151502179055505050565b60006002600084815260200190815260200160002060008373ffffffffffffffffffffffffffffffffffffffff1673ffffffffffffffffffffffffffffffffffffffff16815260200190815260200160002060009054906101000a900460ff168061039857508173ffffffffffffffffffffffffffffffffffffffff166001600085815260200190815260200160002060010160009054906101000a900473ffffffffffffffffffffffffffffffffffffffff1673ffffffffffffffffffffffffffffffffffffffff16145b905092915050565b3373ffffffffffffffffffffffffffffffffffffffff166001600084815260200190815260200160002060010160009054906101000a900473ffffffffffffffffffffffffffffffffffffffff1673ffffffffffffffffffffffffffffffffffffffff1614610444576040517f08c379a000000000000000000000000000000000000000000000000000000000815260040161043b90610a26565b60405180910390fd5b60006002600084815260200190815260200160002060008373ffffffffffffffffffffffffffffffffffffffff1673ffffffffffffffffffffffffffffffffffffffff16815260200190815260200160002060006101000a81548160ff0219169083151502179055505050565b6000808154809291906104c390610b9a565b919050555060405180606001604052808281526020013373ffffffffffffffffffffffffffffffffffffffff168152602001600015158152506001600080548152602001908152602001600020600082015181600001908051906020019061052c9291906106ca565b5060208201518160010160006101000a81548173ffffffffffffffffffffffffffffffffffffffff021916908373ffffffffffffffffffffffffffffffffffffffff16021790555060408201518160010160146101000a81548160ff0219169083151502179055509050503373ffffffffffffffffffffffffffffffffffffffff166000547f6b91b014a57030f2c2db5fca6b08916e721a712f2510c3069caef5f5a6d33604836040516105e091906109a6565b60405180910390a350565b600160205280600052604060002060009150905080600001805461060e90610b68565b80601f016020809104026020016040519081016040528092919081815260200182805461063a90610b68565b80156106875780601f1061065c57610100808354040283529160200191610687565b820191906000526020600020905b81548152906001019060200180831161066a57829003601f168201915b5050505050908060010160009054906101000a900473ffffffffffffffffffffffffffffffffffffffff16908060010160149054906101000a900460ff16905083565b8280546106d690610b68565b90600052602060002090601f0160209004810192826106f8576000855561073f565b82601f1061071157805160ff191683800117855561073f565b8280016001018555821561073f579182015b8281111561073e578251825591602001919060010190610723565b5b50905061074c9190610750565b5090565b5b80821115610769576000816000905550600101610751565b5090565b600061078061077b84610a92565b610a61565b90508281526020810184848401111561079857600080fd5b6107a3848285610b26565b509392505050565b6000813590506107ba81610c81565b92915050565b600082601f8301126107d157600080fd5b81356107e184826020860161076d565b91505092915050565b6000813590506107f981610c98565b92915050565b60006020828403121561081157600080fd5b600082013567ffffffffffffffff81111561082b57600080fd5b610837848285016107c0565b91505092915050565b60006020828403121561085257600080fd5b6000610860848285016107ea565b91505092915050565b6000806040838503121561087c57600080fd5b600061088a858286016107ea565b925050602061089b858286016107ab565b9150509250929050565b6108ae81610ade565b82525050565b6108bd81610af0565b82525050565b60006108ce82610ac2565b6108d88185610acd565b93506108e8818560208601610b35565b6108f181610c70565b840191505092915050565b6000610909601b83610acd565b91507f4f6e6c79206f776e65722063616e206772616e742061636365737300000000006000830152602082019050919050565b6000610949601c83610acd565b91507f4f6e6c79206f776e65722063616e207265766f6b6520616363657373000000006000830152602082019050919050565b61098581610b1c565b82525050565b60006020820190506109a060008301846108b4565b92915050565b600060208201905081810360008301526109c081846108c3565b905092915050565b600060608201905081810360008301526109e281866108c3565b90506109f160208301856108a5565b6109fe60408301846108b4565b949350505050565b60006020820190508181036000830152610a1f816108fc565b9050919050565b60006020820190508181036000830152610a3f8161093c565b9050919050565b6000602082019050610a5b600083018461097c565b92915050565b6000604051905081810181811067ffffffffffffffff82111715610a8857610a87610c41565b5b8060405250919050565b600067ffffffffffffffff821115610aad57610aac610c41565b5b601f19601f8301169050602081019050919050565b600081519050919050565b600082825260208201905092915050565b6000610ae982610afc565b9050919050565b60008115159050919050565b600073ffffffffffffffffffffffffffffffffffffffff82169050919050565b6000819050919050565b82818337600083830152505050565b60005b83811015610b53578082015181840152602081019050610b38565b83811115610b62576000848401525b50505050565b60006002820490506001821680610b8057607f821691505b60208210811415610b9457610b93610c12565b5b50919050565b6000610ba582610b1c565b91507fffffffffffffffffffffffffffffffffffffffffffffffffffffffffffffffff821415610bd857610bd7610be3565b5b600182019050919050565b7f4e487b7100000000000000000000000000000000000000000000000000000000600052601160045260246000fd5b7f4e487b7100000000000000000000000000000000000000000000000000000000600052602260045260246000fd5b7f4e487b7100000000000000000000000000000000000000000000000000000000600052604160045260246000fd5b6000601f19601f8301169050919050565b610c8a81610ade565b8114610c9557600080fd5b50565b610ca181610b1c565b8114610cac57600080fd5b5056fea264697066735822122021a9ac00b5fb87095d797f0554ac804bf813b7b3dd20c5a94f2f87e37bb44d7264736f6c63430008000033",
  "linkReferences": {},
  "deployedLinkReferences": {}
}